:020000040800F2
:1000000090490020B10400085D2900085F2900081C
:1000100063290008672900086B2900080000000018
:100020000000000000000000000000006F29000830
:100030007129000800000000D72300087329000878
:10004000CB040008CB040008CB040008CB04000854
:10005000CB040008CB040008CB040008CB04000844
:10006000CB040008CB040008CB040008CB04000834
:10007000CB040008CB040008CB040008CB04000824
:10008000CB040008CB040008CB040008CB04000814
:10009000CB040008CB040008CB040008CB04000804
:1000A000CB040008CB040008CB040008CB040008F4
:1000B000CB040008F9300008CB040008CB0400088A
:1000C000CB040008CB040008CB040008CB040008D4
:1000D000CB040008CB040008CB040008E92F00087B
:1000E000CB040008CB040008CB040008000000008B
:1000F0000000000000000000000000000000000000
:100100000000000000000000CB040008CB04000841
:10011000CB040008CB040008CB040008CB04000883
:10012000CB040008CB040008CB040008CB04000873
:10013000CB040008CB040008CB040008CB04000863
:10014000CB040008CB040008CB040008CB04000853
:1001500000F002F800F05AF80AA090E8000C82447F
:100160008344AAF10107DA4501D100F04FF8AFF25C
:10017000090EBAE80F0013F0010F18BFFB1A43F085
:100180000103184728550000485500000A444FF065
:10019000000C10F8013B13F0070408BF10F8014BE6
:1001A0001D1108BF10F8015B641E05D010F8016B2B
:1001B000641E01F8016BF9D113F0080F1EBF10F88F
:1001C000014BAD1C0C1B09D16D1E58BF01F801CBB2
:1001D000FAD505E014F8016B01F8016B6D1EF9D535
:1001E0009142D6D37047000000230024002500264A
:1001F000103A28BF78C1FBD8520728BF30C148BF8A
:100200000B6070471FB51FBD10B510BD03F040FC5B
:100210001146FFF7F7FF02F079FB03F05EFC03B431
:10022000FFF7F2FF03BC03F063FC00000CB50020F5
:10023000019000909248006840F480309049086036
:1002400000BF8F48006800F4003000900198401C07
:100250000190009818B90198B0F5A06FF1D18848C5
:10026000006800F4003010B10120009001E000208F
:100270000090009801285CD18248006840F010008E
:10028000804908600846006820F0030008600846BE
:10029000006840F00200086079484068784948608A
:1002A0000846406848600846406840F480604860FE
:1002B0000846C06A744908407149C8620846C06A65
:1002C000724908436E49C8620846006840F0806081
:1002D000086000BF6A48006800F000600028F9D09C
:1002E0006748406820F47C106549486008464068CB
:1002F00040F4E81048600846006840F080700860EC
:1003000000BF5F48006800F000700028F9D05C482A
:10031000406820F003005A4948600846406840F0B1
:100320000200486000BF5648406800F00C000828F2
:10033000F9D10CBD10B5FFF779FF10BD10B55048CD
:10034000006840F001004E49086008464068504986
:1003500008404B494860084600684E4908404849F3
:1003600008600846006820F480200860084640685D
:1003700020F4FE0048600846006820F0A0500860A5
:100380004FF47F0088600020C862FFF7D3FF4FF072
:1003900000604149086010BDF0B500210020002335
:1003A0000024002200250026354F7F6807F00C014D
:1003B00021B1042908D008294BD10BE0374FDFF8D1
:1003C000E0C0CCF800704AE0364FDFF8D4C0CCF87B
:1003D000007044E02A4F7F6807F47010284F7F6850
:1003E00007F48033800C0D2801D0801C00E006202B
:1003F00033B92D4F4743DFF8A8C0CCF8007027E091
:100400001F4FFF6A07F480341D4FFF6A07F00F0784
:100410007A1C44B9234FB7FBF2F74743DFF880C09B
:10042000CCF8007014E0164FFF6AC7F303177D1C69
:10043000134FFF6AC7F30327BE1C1A4FB7FBF5F72C
:100440007743B7FBF2F74743DFF854C0CCF80070AE
:1004500005E0124FDFF848C0CCF8007000BF00BFC5
:10046000074F7F68C7F30317DFF840C01CF8071079
:100470000B4F3F68CF40DFF828C0CCF80070F0BDCC
:10048000001002400020024000F0FEFF4406010080
:100490000000FFF0FFFFF6FE08ED00E000127A001A
:1004A0000000002040787D0100093D00040000208C
:1004B0000948804709480047FEE7FEE7FEE7FEE7F8
:1004C000FEE7FEE7FEE7FEE7FEE7FEE70448054934
:1004D000054A064B704700003D0300085101000823
:1004E0009043002090490020904500209045002036
:1004F0000246002005E011F8013B02F8013B431CD5
:10050000D8B20B78002BF6D1137070472DE9F0416B
:1005100005460E4614460027FE480078002804DDF4
:10052000112020700020BDE8F0812878012808D033
:10053000022807D0032802D0042804D100E000BF1D
:1005400000BF00BF03E0012020700020EBE700BFE8
:1005500001F020FF074605F113013046FFF7C8FF01
:100560008046384601F01AFF002020704046DAE746
:100570000146002002E0491C421CD0B20A78002A41
:10058000F9D170472DE9F04105460F4614464FF06A
:100590000008E0480078002803DD12202070BDE844
:1005A000F0812878012808D0022807D0032802D03B
:1005B000042804D100E000BF00BF00BF02E001201A
:1005C0002070ECE700BF01F0E5FE80463846FFF7FB
:1005D000CFFF06460F2E05DD404601F0DFFE0B2063
:1005E0002070DCE7394605F11300FFF781FF404634
:1005F00001F0D4FE0020207000BFD0E7002400BF2F
:1006000001F0C8FE0446C4480068401CC2490860A6
:10061000204601F0C3FE01F05AFEF1E700B587B0B5
:10062000032000218022BD4BCDE90132CDE903102A
:100630004FF6FF703F23BA4A0090AFF23F0001F03F
:1006400030F906AAB7A13F2001F0B6F907B000BD06
:1006500004E0002200F8012B4A1E91B20029F8DCC8
:10066000704730B54FF4B471B248FFF7F1FFB14BAA
:1006700003F1240500240AE0002018705D603F208B
:10068000D8740021197524332435601C84B2092CD8
:10069000F2DB0020187058603F20D87400211975D3
:1006A000A448A549086030BD30B540F2E461A348D4
:1006B000FFF7CEFF4FF48071A148FFF7C9FF9F4BB2
:1006C00003F1540500240AE05D613F2083F84400F3
:1006D00000214520C15454335435601CC4B2142C3D
:1006E000F2D3002058613F2083F8440000214520C8
:1006F000C15400209349086090489349086030BD78
:100700000022924B1A709249002004E0002201F866
:10071000012B421CD0B20828F8DB00228D4B1A7046
:100720008D4B1A708D4B1A608D4B1A6070470020EC
:100730008C490860774908708B4908708B490870AC
:100740008B4908708B49086073490860704710B581
:1007500001F0B6FDFFF7EBFFFFF7D2FFFFF7A4FFB5
:10076000FFF77FFF00F054FB00F058FEFFF756FF45
:1007700001F029FD01F0A8FD10BD7D480078012899
:1007800008D164480078FF2804D262480078401CF1
:1007900060490870704778496C4A1278885C6C49E7
:1007A000095C754A515C01EBC0016B4A11707047DE
:1007B00010B500246E480078012830D101F0EAFD20
:1007C000044654480078002804DD52480078401E52
:1007D000504908704F480078F0B963480078D8B99C
:1007E000FFF7D9FF5C4800785A490978884213D04E
:1007F00053485949097850F821005849086008467B
:100800000068006B401C096808635A480068401C77
:100810005849086001F0DAFD204601F0BFFD10BD27
:1008200010B55348007890B9FFF7B5FF4A480078F3
:100830004849087042484849097850F8210047491A
:100840000860084600684649086001F0AAFD10BD2E
:1008500070B5002601F08CFD01F09CFD0646414874
:100860000068401C3F490860304601F097FD404851
:10087000007801284CD14148007820B1012804D0EB
:10088000022809D103E001250BE0002509E001253C
:1008900001203A49087004E001250020374908701A
:1008A00000BF00BF05B970BD264804686CE001F0C8
:1008B00071FD0646A08C50B3A08C401E80B2A0846F
:1008C00028BB94F8260000F0370040B114F8260F3A
:1008D00020F03700207001206070263C02E00020EC
:1008E00084F8270094F8260000F0080078B92A342C
:1008F000A0781649097808431449087020781449EB
:10090000085C6178084314F82A19114A505437E0FA
:100910003EE000001C0000202C0000209803002076
:100920009405002075432F4F532D49492049646C8D
:10093000650000003002002018000020980600200A
:10094000980500203C0000203400002020000020FA
:10095000210000201E0000201F0000203800002081
:10096000300000204C0000201D0000202A00002044
:100970002900002014000020143D00084000002041
:100980006469304601F00AFD94F828003F288ED1B2
:1009900000BF88E74FF48F70704710B590F82A2099
:1009A00001F10B039B5C90F82B40A34301F10B0476
:1009B000A35423469B5C23B98B7A90F82C40A34325
:1009C0008B7210BD2DE9F04F05460F4690469946B3
:1009D000A87A96490E5C05F10B00805D11F800B015
:1009E0000BEBC60000F0FF0A914850F82A400020A7
:1009F0002034A0802760A07920EA0800A07184F844
:100A00000790A079203C00F0080068B994F82C0009
:100A1000884909780843874908708748805D94F8B9
:100A20002B1008438449885529462046FFF7B5FF17
:100A30005046BDE8F08F10B5804A1268D0617F4AF9
:100A4000126892F82A3000F10B02D25C7B4B1B68D3
:100A500093F82B301A43794B1B6893F82A4000F126
:100A60000B031A55827A754B1B6893F82C301A4386
:100A70008272724A126892F82A106F4A525C6F4B67
:100A80001B6893F82B309A436B4B5A541A46525CAE
:100A900042B96A4A126892F82C30664A12789A4330
:100AA000644B1A7010BD0023837200F10B01002209
:100AB00004E0002301F8013B531CDAB2082AF8DBFA
:100AC000704705E011F8013B00F8013B531E9AB254
:100AD000002AF7DC704710B5002401F05BFC0446E7
:100AE00057480078F0B957480078D8B9FFF753FE57
:100AF0005548007855490978884213D04C485249E6
:100B0000097850F821005249086008460068006BD7
:100B1000401C096808634F480068401C4D49086044
:100B200001F04FFC204601F039FC10BD2DE9F84FD3
:100B300005460E4617469846DDE90BABDDF82890D2
:100B40000020009001F026FC009043480468002C2F
:100B500067D054F8140F40490860009801F01EFC5B
:100B600044F8146C25750020A074E074208244F8C9
:100B700010AC44F8089C44F80C7C24F804BC24F81D
:100B8000028CE810A07505F007006075A17D0120BA
:100B900088402076617D01208840E0750020A060BB
:100BA000E060E06160622062A062E0623F2084F861
:100BB0003000143C002145200155204601F0D7FBB0
:100BC000204601F082FB01F0E5FB0090184840F858
:100BD00025402248006860610020A0611F4800682D
:100BE00010B11E48006884611C4804602A34A07853
:100BF0001049097808430F49087020780E49085CAD
:100C00006178084314F82A190B4A505414480078A4
:100C1000401C13490870009801F0C0FB0020BDE89B
:100C2000F88F009801F0BAFB4220F8E7143D000865
:100C30009805002020000020210000203000002026
:100C40001C0000201D0000201F0000201E000020AE
:100C50003800002014000020340000203C00002058
:100C60002A0000202DE9F84F05460F4690469A4687
:100C70000020009001F08EFB009076480468006828
:100C800020B174480068406872490860009801F01B
:100C900085FB2CB95A208AF800000020BDE8F88FA7
:100CA0002E4605EB08094FF0000B05E0C6F8009052
:100CB0004E46C1440BF1010B781E5845F6D8002072
:100CC0003060256065602761E760C4F808808AF8B5
:100CD00000002046E2E72DE9F04104460D460027DA
:100CE00001F058FB0746206968B1666830686060AB
:100CF0002069401E2061384601F050FB002028701A
:100D00003046BDE8F081384601F048FB5D20287090
:100D10000020F6E72DE9F04105460E46144600276F
:100D20004D480078002804DD112020700020BDE827
:100D3000F08101F02FFB074605F114013046FFF763
:100D4000D7FB8046384601F029FB00202070404642
:100D5000EDE72DE9F04106460F4614464FF0000836
:100D60003D480078002803DD12202070BDE8F081A6
:100D700001F010FB80463846FFF7FAFB05460F2DC1
:100D800005DD404601F00AFB63202070EEE739469E
:100D900006F11400FFF7ACFB404601F0FFFA00201B
:100DA000207000BFE2E770B504460D46002601F052
:100DB000F1FA0646D4E90310884204D3304601F024
:100DC000EDFA5E2070BD6068286065602069401C97
:100DD0002061304601F0E2FA0020F3E770B50546E5
:100DE0000C46002601F0D6FA06462868206068689E
:100DF0006060A868A060E868E0602869206130460B
:100E000001F0CCFAD4E90301401A6061002070BD02
:100E100070B5B4211148FFF71BFC104C00250DE004
:100E2000681C00EBC0000D4901EB800060603F20B2
:100E30002075002161752434681C85B2042DEFDB18
:100E4000002060603F202075002161750348014942
:100E5000086070BD440000201C0000207C0D0020B4
:100E60002DE9F04106460D464FF000083078022883
:100E700004D0012028700020BDE8F08101F08AFA3A
:100E800080467468E08A00280FDD2169081D206112
:100E90000F68E08A401EE082A1682069884201D183
:100EA000606820610020287002E01F202870002761
:100EB000404601F073FA3846DEE72DE9F041064678
:100EC0000F464FF00008FB480078002802DD0020A4
:100ED000BDE8F08101F05EFA8046F74804680068DA
:100EE00020B1F54800684068F3490860404601F0C9
:100EF00055FA0CB301F04EFA8046F0480568E5B1AA
:100F000000680068ED490860404601F047FA6E60ED
:100F100006EB8700A860EE602E61AF820020E882B9
:100F2000022020700020208165603F20E0740021B5
:100F300021752046FFF7B7FD08E0DF4800686060D4
:100F4000DD480460404601F029FA00242046BFE74E
:100F50002DE9F0470446894615464FF0000A2078EF
:100F6000022804D0012028702046BDE8F087D1482F
:100F70000078002803DD0F2028702046F5E701F0F7
:100F800009FA8246A07A10B14FF0010801E04FF053
:100F90000008B9F1000F03D0B9F1010F4DD123E0E2
:100FA000B8F1000F19D13F20E07400212175666867
:100FB000C24800683060C148066000202070BE480A
:100FC0000068606000202081BB480460504601F04A
:100FD000E5F900202870002705E0504601F0DEF911
:100FE0004920287027462FE005E0002304221946F7
:100FF0002046FFF7E7FCA07A0028F6D13F20E074F6
:10100000002121756668AD4800683060AB48066015
:1010100000202070A8480068606000202081A64859
:101020000460504601F0BAF9B8F1010F01D1FFF7A1
:1010300052FD00202870002706E0504601F0AEF96E
:1010400007202870274600BF00BF38468DE770B5DF
:101050000546002601F09EF906466C686068E0606F
:10106000606820610020E082304601F097F900209E
:1010700070BD2DE9F0470746884615464FF0000938
:101080003878022804D0012028700020BDE8F087BD
:1010900088480078002803DD022028700020F5E74A
:1010A00087480078002803DD0D2028700020EDE738
:1010B00001F070F981467C68E08A002813DD21691F
:1010C000081D20610E68E08A401EE082A168206948
:1010D000884201D160682061484601F05FF9002034
:1010E00028703046D2E77748006890F8260040F034
:1010F00004007449096881F82600002071490968D4
:1011000081F827006F480068A0F824803846FFF770
:1011100092FC484601F042F9FFF7DDFC01F03AF994
:1011200081466848006890F8270020B101280DD05A
:1011300002280AD105E063480068066A002028708A
:101140000DE000260E20287009E000BF39465D48FA
:101150000068FFF722FC00260A20287000BF00BFAD
:1011600000205849096881F826005649096881F825
:10117000270054490968C86152490968086248460D
:1011800001F00CF9304681E72DE9F04104460F46A5
:1011900015464FF000082078022804D0012028705E
:1011A0000020BDE8F08101F0F5F88046A07A20B378
:1011B00000267FB1012F0CD107E002230422002179
:1011C0002046FFF7FFFB701CC6B2A07A0028F4D1BE
:1011D00009E000BF0223042200212046FFF7F2FBB2
:1011E000701CC6B200BF00BF404601F0D7F8FFF741
:1011F00072FC0E2028703046D3E7404601F0CEF84E
:101200000020287000BFCCE72DE9F04105460E46CE
:1012100000272878022802D00120BDE8F08101F0E3
:10122000B9F80746A87A60B100230422314628465F
:10123000FFF7C8FB384601F0B1F8FFF74CFC00207F
:10124000EBE76C68E08AA18A884204DB384601F04B
:10125000A5F81E20E1E7E168081DE0600E60E08A65
:10126000401CE082D4E90210884201D16068E0604D
:10127000384601F093F80020CFE72DE9F04105460C
:101280000E4600272878022802D00120BDE8F08110
:1012900001F080F80746A87AB0B100230422314655
:1012A0002846FFF78FFB384601F078F8FFF713FC6C
:1012B0000020EBE71C000020180000204800002060
:1012C0001D000020300000206C68E08AA18A88425E
:1012D00004DB384601F062F81E20D7E76168206918
:1012E000884201D1A06820612069001F2061206927
:1012F0000660E08A401CE082384601F04FF800208A
:10130000C4E72DE9F04105460F4616464FF00008A8
:101310002878022802D00120BDE8F08101F03AF8D7
:101320008046A87AE8B106F0010050B105E000233C
:10133000042239462846FFF745FBA87A0028F6D153
:1013400005E00023042239462846FFF73BFB4046D0
:1013500001F024F806F0040008B9FFF7BCFB0020F8
:10136000DAE76C68E08AA18A884204DB404601F033
:1013700015F81E20D0E706F0020058B16168206918
:10138000884201D1A06820612069001F2061206986
:10139000076009E0E168081DE0600F60D4E9021011
:1013A000884201D16068E060E08A401CE0824046EB
:1013B00000F0F4FF0020AFE72DE9F04705460C46AA
:1013C0004FF0000A2878022802D00120BDE8F087FB
:1013D00000F0E0FF8246A87A207405F10B0804F1C2
:1013E0000809002705E018F8010B09F8010B781C23
:1013F000C7B2082FF7DB6E68F08A002803DD30697A
:101400000068206001E000202060F08AA080B08A9F
:10141000E080504600F0C2FF0020D7E770B56021A1
:101420000A48FFF715F9094C04F11806002504E0F5
:10143000266018341836681C85B2032DF8DB0020AE
:10144000206002480249086070BD0000300E002094
:101450004800002070B5044600262078032801D0FB
:10146000002070BD00F096FF06462589002D02DDA4
:101470002089401E2081304600F090FF2846F0E78A
:1014800070B505460026DD480078002801DD002003
:1014900070BD00F07FFF0646D9480468006820B19F
:1014A000D74800684068D6490860304600F076FFAB
:1014B0005CB1032020702581002060603F20E07433
:1014C000002121752046FFF7EEFA2046E0E72DE9DE
:1014D000F0470446884615464FF000092078032857
:1014E00004D0012028702046BDE8F087C34800786A
:1014F000002803DD0F2028702046F5E700F04AFFA2
:101500008146A07A08B1012700E00027B8F1000F5A
:1015100003D0B8F1010F3ED11BE09FB93F20E0742A
:101520000021217500202070B5480068606000200F
:101530002081B3480460484600F030FF0020287046
:10154000002605E0484600F029FF4920287026467D
:1015500028E005E00023012219462046FFF732FA71
:10156000A07A0028F6D13F20E074002121750020E8
:101570002070A3480068606000202081A0480460BB
:10158000484600F00BFF012F01D1FFF7A4FA00201D
:101590002870002606E0484600F000FF072028706B
:1015A000264600BF00BF30469EE72DE9F0410546C4
:1015B0000E46144600272878032803D00120207007
:1015C000BDE8F0818D480078002802DD02202070FF
:1015D000F6E78C480078002802DD0D202070EFE748
:1015E00000F0D8FE07462889002808DD2889401E1B
:1015F0002881384600F0D2FE00202070E0E78248C3
:10160000006890F8260040F001007F49096881F8E1
:10161000260000207C49096881F827007A48006884
:1016200086842846FFF707FA384600F0B7FEFFF732
:1016300052FA00F0AFFE07467348006890F82700A2
:1016400020B1012809D0022806D102E00020207034
:101650000BE00E20207008E000BF29466A480068B1
:10166000FFF79BF90A20207000BF00BF00206649E9
:10167000096881F826006449096881F827006249F1
:101680000968C861384600F089FE00BF98E72DE977
:10169000F04104460F4615464FF000082078032815
:1016A00004D0012028700020BDE8F08100F072FE17
:1016B0008046A07A20B300267FB1012F0CD107E02D
:1016C0000223012200212046FFF77CF9701CC6B2DC
:1016D000A07A0028F4D109E000BF022301220021F2
:1016E0002046FFF76FF9701CC6B200BF00BF40462E
:1016F00000F054FEFFF7EFF90E2028703046D3E7D4
:10170000404600F04BFE0020287000BFCCE770B5CB
:10171000044600252078032801D0012070BD00F088
:1017200039FE0546A07A60B1002301221946204601
:10173000FFF748F9284600F031FEFFF7CCF900200A
:10174000ECE720894FF6FF71884207D22089401CC0
:101750002081284600F022FE0020DFE7284600F026
:101760001DFE3220DAE72DE9F04704460D464FF022
:1017700000092078032802D00120BDE8F08700F09E
:1017800009FE8146A07AA87204F10B07AE1C4FF047
:10179000000807E017F8010B06F8010B08F101003B
:1017A00000F0FF08B8F1080FF4DB208928804846D4
:1017B00000F0F4FD0020E0E72DE9F04104460E467C
:1017C000154600272078032803D001202870BDE8A3
:1017D000F08100F0DFFD07460020287020890028F6
:1017E00001DD268105E0A07A08B9268101E04920C3
:1017F0002870384600F0D2FD00BFE8E71C0000204A
:10180000180000201D000020300000202DE9FE4FB0
:1018100006460F4690461C464FF0000900F0BAFD00
:10182000814686480078002805DD484600F0B6FD70
:101830003C20BDE8FE8F824850F8240060BB0120A8
:101840007F4941F82400484600F0A8FD00234246A5
:101850003946304600F03DFD824600200090019060
:1018600003460246514602902046FFF75FF90546BF
:1018700035B97448007801280CD1FFF72CF909E03C
:1018800000F088FD814600206D4941F8240048465B
:1018900000F084FD2846CCE7484600F07FFD282074
:1018A000C7E72DE9F04F85B00746884691461C46AC
:1018B000DDE911B6DDF838A00020039000F06AFDE4
:1018C00003905E480078002806DD039800F066FD6E
:1018D0003C2005B0BDE8F08F594850F8240060BBAB
:1018E0000120574941F82400039800F057FD334682
:1018F0004A464146384600F0ECFC049010985346A6
:10190000CDE901B6009020460F9A0499FFF70EF931
:10191000054635B94B48007801280CD1FFF7DBF8B4
:1019200009E000F037FD03900020454941F824000C
:10193000039800F033FD2846CBE7039800F02EFD16
:101940002820C6E72DE9F04706460F4614464FF01B
:1019500000083A480078002804DD1120207000209B
:10196000BDE8F08700F016FD8046FF2E03D1364813
:10197000006890F82860324850F8265035B9404643
:1019800000F00CFD432020700020E9E7012D06D176
:10199000404600F003FD432020700020E0E705F101
:1019A00044013846FEF7A4FD8146404600F0F6FCAF
:1019B000002020704846D3E72DE9F04706468846C8
:1019C00014464FF000091D480078002803DD12205E
:1019D0002070BDE8F08700F0DDFC8146FF2E03D1CA
:1019E0001948006890F82860154850F826502DB91D
:1019F000484600F0D3FC43202070EAE7012D05D1D2
:101A0000484600F0CBFC43202070E2E74046FEF75A
:101A1000AFFD07460F2F05DD484600F0BFFC412013
:101A20002070D6E7414605F14400FEF761FD4846C7
:101A300000F0B4FC0020207000BFCAE71C000020AA
:101A400098050020290000203000002070B50546D0
:101A5000002667480078002800DD70BD002D23DDDA
:101A600000F098FC06466348006890F82A406248F7
:101A7000005D6049096891F82B1088435E4908555C
:101A80000846005D40B95B48006890F82C105B4840
:101A90000078884359490870564800688584304664
:101AA00000F07CFCFFF717F800BFD6E72DE9F04700
:101AB0000746884691461D464D480078002802DDBD
:101AC0005520BDE8F0874FF47A7068434FF47A717F
:101AD000B0FBF1F14FF461607843C8EB081200EB02
:101AE0008200484400EB4002C2EBC01001EBC0048E
:101AF000260CA4B22046FFF7A9FF09E04FF40040EE
:101B0000FFF7A4FF4FF40040FFF7A0FF701E86B25E
:101B1000002EF3DC0020D4E770B5054600263F2DEB
:101B200001DB2A2070BD00F035FC0646344850F831
:101B3000254024B9304600F031FC4320F2E7012C67
:101B400004D1304600F02AFC4320EBE7A08C20B9FA
:101B5000304600F023FC5020E4E70020A08494F8F5
:101B6000260000F0370040B114F8260F20F03700AF
:101B7000207001206070263C02E0002084F82700DD
:101B800094F8260000F00800A8B92A34A0781B4970
:101B9000097808431949087020781749085C61786A
:101BA000084314F82A19144A5054304600F0F6FB42
:101BB000FEF791FF02E0304600F0F0FB0020B1E7B5
:101BC00070B5002500F0E6FB05460E48046828467F
:101BD00000F0E4FB204670BD70B50446002500F01F
:101BE000D9FB054607480460284600F0D7FB70BDC6
:101BF0001C000020300000202100002020000020D8
:101C0000980500204C00002010B5FE480068FFF742
:101C10007EFD10BDFC48006808B900207047FA48F6
:101C20000168F94AC86810600020C8600861F74878
:101C30000088401CF54A1080F5480088401EF44A90
:101C400010800846EAE708B56A460021ED480068BA
:101C5000FFF7ABFC08BD2DE9F05F80468946924650
:101C60009B46DDE90B65EB480078002804DD8B20FE
:101C700028700020BDE8F09FFFF7E5FFFFF7CAFFDF
:101C800004462CB9FFF7C0FF862028700020F1E73A
:101C9000012084F83100C4F81880C4F81C9084F83E
:101CA00030A0C4F804B00A98A060BEB13046FEF778
:101CB0005FFC0746102F05DA314604F12000FEF7DD
:101CC00017FC0BE0232084F820000021212001557F
:101CD0008C202870FFF798FF2046CBE7FFF794FF92
:101CE000002028702046C5E7002180F8311080F8D8
:101CF0003010C1614161416081603F2180F8201056
:101D0000002221210A5400210161BF490968C160F4
:101D1000BD490860BD490988491EBC4A1180BC49BB
:101D20000988491CBA4A1180704730B5057D05F015
:101D30000704B94D05EBC4031D68854205D1C16890
:101D4000196039B100250D6104E00169C268CA60FB
:101D500002B11161012580F831500025C56005618F
:101D60009D886D1E9D8030BD70B505460C46287857
:101D7000642803D089202070002070BDA548007819
:101D8000002803DD8B2020700020F6E7FFF75BFFC3
:101D900095F83100D8B101280FD002280ED00328C1
:101DA0001BD12846FFF7C1FF2846FFF79DFFFFF72D
:101DB0002BFF002020700120DFE700BF2846FFF73F
:101DC00093FFFFF721FF002020700120D5E7FFF7E8
:101DD0001BFF872020700020CFE7FFF715FF8D2025
:101DE00020700020C9E72DE9F04105460E46144653
:101DF0002878642804D0892020700020BDE8F08174
:101E000084480078002803DD112020700020F5E7C9
:101E1000FFF719FF95F8310098B1012804D0022886
:101E200003D0032813D100BF00BF05F120013046C5
:101E3000FEF75EFB0746FFF7E7FE002020703846FE
:101E4000DCE7FFF7E1FE872020700020D6E7FFF7F0
:101E5000DBFE8D2020700020D0E770B504460D46D3
:101E60002078642803D089202870002070BD69483C
:101E70000078002803DD8B2028700020F6E7FFF7AC
:101E8000E2FE94F8310070B301280DD0022825D06D
:101E900003282FD1614960690968461AFFF7B4FE2B
:101EA000002028703046E1E794F8300001280CD07B
:101EB000022809D1A06908B9E66900E0A669FFF720
:101EC000A3FE0020287006E000BFA669FFF79CFE75
:101ED0000020287000BF00BF3046C7E7FFF794FE20
:101EE00000202870C2E7FFE7FFF78EFE87202870EA
:101EF0000020BBE7FFF788FE8D2028700020B5E7A3
:101F000070B505460C462878642803D089202070D7
:101F1000002070BD3F480078002803DD8B20207032
:101F20000020F6E7FFF78FFE95F8316036B1012EFD
:101F300005D0022E04D0032E06D102E000BF00BF60
:101F400000BF0020207002E08D20207000BF00BF85
:101F5000FFF75AFE3046DCE770B50B46032580F8E4
:101F60003150012B05D12D4EC56936683544456188
:101F70000CE085692DB9294EC5693668354445613F
:101F800004E0264E8569366835444561057D05F0D7
:101F90000704214D05EBC4010D682DB9086000252B
:101FA000C56001258D8006E00A680860C260106186
:101FB0008D886D1C8D800025056170BD70B505464E
:101FC0000C462878642803D089202070002070BD3A
:101FD00010480078002803DD8B2020700020F6E7F1
:101FE000FFF731FE95F8310068B3012820D00228B0
:101FF0001FD003282DD12846FFF797FE0021284641
:102000000EE0000058000020600000205200002078
:10201000500000201C000020D0130020540000209D
:10202000FFF79AFFFFF7F0FD002020700120CEE7B8
:1020300000BF00212846FFF78FFFFFF7E5FD0020D6
:1020400020700120C3E7FFF7DFFD8720207000200C
:10205000BDE7FFF7D9FD8D2020700020B7E72DE9FF
:10206000F04105460F4690461C462878642804D067
:10207000892020700020BDE8F0817B48007800288E
:1020800003DD8B2020700020F5E7FFF7DCFD95F8DD
:102090003100002832D001282AD0022827D0032876
:1020A00032D12846FFF741FE00202070B7B1032F40
:1020B00002D0042F13D108E06E681EB12846A9682B
:1020C000B04701E08F2020700CE06E681EB14146E1
:1020D0002846B04701E08F20207003E002E0842012
:1020E000207000BF00BFFFF78FFD0120C3E700BFD6
:1020F000FFF78AFD8E2020700120BCE7FFF784FDEA
:10210000872020700020B6E7FFF77EFD8D2020702D
:102110000020B0E710B555480068FFF7F8FA04460C
:10212000204610BD08B500BF6A4600214F48006830
:10213000FFF73BFAFFF787FD4D480068401C4C490C
:1021400008600846007800F007084A4800EBC80716
:102150003C681AE0E668464960690968884213D11C
:10216000656815B12046A168A8472046FFF7DDFD48
:1021700094F83000022804D101212046FFF7ECFE3C
:1021800002E0022084F831003446002CE2D1FFF74F
:102190003BFDC9E700B587B0032000218022364B04
:1021A000CDE90132CDE903104FF6FD700123334A2A
:1021B00000903348FFF775FB06AA32A10120FFF714
:1021C000FBFB07B000BDF8B54FF450713148FEF786
:1021D0003FFA40212748FEF73BFA2E4C04F1340623
:1021E00000250FE064202070002084F83100E660B4
:1021F0003F2084F82000002121200155343434365A
:10220000681C85B20F2DEDDB64202070002084F85F
:102210003100E0603F2084F820000021212001559A
:102220000020134908601C49088010201B490880C1
:1022300018481B4908600120FFF722F91949086076
:102240000020FFF71DF9094908606A4616A11548E4
:102250000068FEF797F96A4616A104480068FEF781
:1022600091F9FFF797FFF8BD1C0000205C000020EB
:1022700054000020D0130020D0110020CC130020E7
:102280002521000875432F4F532D494920546D7265
:1022900000000000900E002052000020500000209E
:1022A00060000020580000204F532D546D724C6F79
:1022B000636B00004F532D546D725369670000002B
:1022C0000020334908807047704770477047704757
:1022D000704770B5044610464FF080750560051FC5
:1022E00028462C606FF00106051F28462E604FF02F
:1022F0001236051F28462E604FF00336051F28466C
:102300002E604FF00236051F28462E607610051FFE
:1023100028462E60051F284629604FF01136051FFC
:1023200028462E604FF01036051F28462E604FF0CD
:102330000936051F28462E604FF00836051F28462F
:102340002E604FF00736051F28462E604FF00636E8
:10235000051F28462E604FF00536051F28462E60C3
:102360004FF00436051F28462E6070BD7047704739
:1023700010B507480088401C0549088008460088B9
:10238000642803DB00200880FFF7C4FE10BD0000B6
:1023900064000020EFF3108072B6704780F310885D
:1023A00070471D484FF0FF010170002080F309883D
:1023B0001A48012101701A484FF08051016062B63D
:1023C000FEE717484FF080510160704714484FF006
:1023D00080510160704772B6EFF3098028B1203850
:1023E00080E8F00F0F490968086000B50E48804783
:1023F0005DF804EB0D480E490A78027009480D4952
:102400000A680260106890E8F00F203080F30988B5
:102410004EF0040E62B6704722ED00E02900002065
:1024200004ED00E0300000206D2300081E000020B5
:102430001F0000203800002070B502460C46002026
:1024400009E0050AF84E36F8153012F8016B06EB74
:1024500000255D40A8B22500A4F10104F1D10021BE
:1024600007E0050AF04E36F8153083EA0025A8B2D9
:10247000491C0229F5DB70BD70B542F22831B1F17B
:10248000807F00D31DE021F07F40401E4FF0E0220E
:10249000506150170F22002807DA13071D0EE34B77
:1024A00000F00F04241F1D5503E013071C0EE04B22
:1024B0001C5400BF00204FF0E02290610720106103
:1024C00000BF6FF0040001F0D9FB70BD08B5FA2021
:1024D0008DF80000FF208DF8010000208DF802002B
:1024E000FE208DF8030007E001F0D1F9322300222D
:1024F00011461046FFF7DAFAF6E788B000F0A4FCC0
:1025000069E0012104A800F049FD0546012D00D035
:1025100061E09DF81000FA2800D05CE0082104A8D2
:1025200000F03CFD0546082D00D054E0062104A82B
:10253000FFF782FF04469DF81600B0EB142F00D081
:1025400049E0E0B29DF81710884200D043E04FF414
:102550008051B84800F0E0FE28B14FF48051B548F2
:1025600000F0E9FE04E04FF48051B24800F0E1FED3
:102570009DF8100000F07F008DF807009DF8110015
:1025800000F01F008DF80A0000208DF804009DF86F
:10259000120000F07F018DF808109DF8130000F084
:1025A0001F018DF80B1001208DF805009DF8140017
:1025B00000F07F018DF809109DF8150000F01F0153
:1025C0008DF80C1002208DF8060001A99A480068C9
:1025D000FEF71AFE00BF94E72DE9FF5F80460C4628
:1025E00015464FF0000AC4EBC40101EB4101012282
:1025F00002EB410020232A22002100F0E3FA4046AA
:1026000001F05CF900EB80004006070E12200190FB
:10261000C7F12A0000EBD0714910C4EBC40202EBF1
:10262000420201EB42010EB24FF00C0B0199C1F1D5
:102630002A0000EBD0714910C4EBC40202EB420245
:1026400001EB420109B203910020029005F0030959
:10265000B9F1010F02D1DFF8E4A109E0B9F1020FED
:1026600004D1DFF8D8A10AF1280A01E04FF0000AEE
:10267000002F06DD724850F82420DDE9021000F03A
:1026800045FB05F01800102822D1012000F093FA34
:102690006C48C4EBC40101EB41010122009002EB44
:1026A000410014231A46594600F0AEFA65483C3002
:1026B000C4EBC40101EB4101012202EB41011431E1
:1026C000009008B214231A46594600F09DFA5DE0C6
:1026D00005F01800082823D1012000F06CFA5948B1
:1026E0007838C4EBC40101EB41010122009002EBF8
:1026F000410014231A46594600F086FA51483C38E6
:10270000C4EBC40101EB4101012202EB4101143190
:10271000009008B214231A46594600F075FA35E0C5
:10272000BAF1000F1ED0012000F045FAC7F12000D9
:1027300000EBD0714910C4EBC40202EB420201EB82
:1027400042010EB24246594606F10A0000B200F0BC
:10275000BAFA14230A2259463046CDF800A000F0F8
:1027600053FA13E0012000F026FAC7F12A0000EB2B
:10277000D0714910C4EBC40202EB420201EB4201EA
:102780000EB242465946304600F09DFABDE8FF9F22
:1027900008B5002400F0FDF900F0DAFA012000F09D
:1027A0000AFA5DE06A4640F6B83123480068FEF751
:1027B00060FC04469DF80000002849D1002C47D059
:1027C000E07808B9A07958B1002021781E4A505409
:1027D000A2792178E3781D4D55F82300FFF7FCFE20
:1027E000207908B9E07958B100206178164A505430
:1027F000E27961782379154D55F82300FFF7ECFE57
:10280000607908B9207A58B10020A1780E4A505456
:10281000227AA17863790D4D55F82300FFF7DCFE8D
:1028200000F096FA1CE00000143E000818ED00E0ED
:1028300000E400E0000C0140680000208C54000817
:1028400018020020C84000086C0000207000002022
:102850009DF800000A2803D100F09BF900F078FAF7
:10286000A0E7FFF709FE10213048FEF726FB3049AC
:10287000086006232F4A00212F48FEF7C7FF0723D1
:102880002E4A00212E48FEF7C1FF09232D4A0021C0
:102890002D48FEF7BBFF38E02C480078052805DA04
:1028A0002A480078401C2949087006E00022114699
:1028B00027A0FFF791FE00F04BFA24484078052846
:1028C00005DA22484078401C2049487006E0002282
:1028D00001211FA0FFF780FE00F03AFA1B48807824
:1028E000052805DA19488078401C1849887006E0E8
:1028F0000022022116A0FFF76FFE00F029FA002344
:10290000012219461846FFF7D1F8C5E710B500F0C7
:102910008FFAFDF71CFF02230E4A00210E48FEF736
:1029200075FFFDF77DFF002010BD00001022002084
:10293000680000200C190020CD2400080C21002084
:10294000FB2400080C220020912700086C000020C6
:10295000000000000C15002063280008704700BF2D
:10296000FEE700BFFEE700BFFEE700BFFEE77047DF
:10297000704710B5FFF70EFD044606480078401C6E
:10298000044908702046FFF709FDFDF761FFFDF7D8
:102990000FFF10BD1C00002005E00A2100BF0A0047
:1029A000A1F10101FBD10200A0F10100F5D17047B6
:1029B000F548006820F00F00F3490860704708B53B
:1029C00001211C2001F0F8F810208DF803000320ED
:1029D0008DF802008020ADF800006946EB4800F059
:1029E000FBFB0120ADF800006946E84800F0F4FB6D
:1029F0000420ADF800006946E44800F0EDFB022039
:102A0000ADF800006946E14800F0E6FB0820ADF8AB
:102A100000006946DD4800F0DFFB4FF48060ADF850
:102A200000006946DA4800F0D7FB4FF40060ADF8CB
:102A300000006946D64800F0CFFB0120ADF8000049
:102A40006946D1480C3800F0C7FB0220ADF8000001
:102A50006946CD480C3800F0BFFB0420ADF80000FB
:102A60006946C9480C3800F0B7FB0820ADF80000F3
:102A70006946C5480C3800F0AFFB8021C34800F020
:102A80005AFC4FF48061C24800F055FCFFF790FFFC
:102A90004FF40061BE4800F04EFCBE48BE490860DD
:102AA000BE48BF4908600120BE49087008BD014604
:102AB000B54A121F126890B220F00F000843B24AC4
:102AC000106070472DE9F041B7480078B4490968B3
:102AD00001EBC014B44800781030B149096801EB2B
:102AE000C0154FF0800826E014F8016B15F8017B43
:102AF000A648C06820F00300A449C8600846C06822
:102B0000AA49895D0843A149C8600846C06820F009
:102B10000C00C8600846C068A549C95D08439B49C8
:102B2000C8608021994800F004FC8021974800F09B
:102B300002FC00BF00BF5FEA0800A8F1010101F03C
:102B4000FF08D1D14FF40061914800F0F2FBFFF78C
:102B50002FFF4FF480618E4800F0EBFB4FF4806153
:102B60008B4800F0E8FB90480078FFF7A0FF4FF497
:102B70000061874800F0DFFB8B480078401C8A49E1
:102B8000087008460078102801D100200870BDE8C0
:102B9000F08110B54FF480517F48006800F0FAFED4
:102BA00010BD10B5044622464FF480517A480068A3
:102BB00000F0E8FE10BD032800DD70477949087079
:102BC00000BFFAE72DE9F041002519E000EBC1173D
:102BD0003EB200240EE04FF00008374606F1010C2B
:102BE0000FFA8CF6DFF8B0C1DCF800C00CF80780F3
:102BF000671C3CB29442EEDB4F1C39B26F1C3DB2F5
:102C00009D42E3DBBDE8F0812DE9F84F04460D4617
:102C100016469B46DDF828E029464FF0000C4EE0B2
:102C200020460022002740E012B980221EF8013B16
:102C300003EA0208B8F1000F17D080282CDA002828
:102C40002ADBDFF8609199F8008000EBC1190FFAD8
:102C500089F9CDF80090DFF84091D9F800A0DDF8AF
:102C600000900AF8098000BF16E0802814DA0028D6
:102C700012DB00BF00EBC1180FFA88F8CDF8008016
:102C80004FF00009DFF81081D8F800A0DDF80080CF
:102C90000AF8089000BF00BF521000F101080FFAB7
:102CA00088F007F101080FFA88F7B742BCDB01F1A1
:102CB00001080FFA88F10CF101080FFA88FCDC45D5
:102CC000AEDBBDE8F88F2DE9F84705460E46144601
:102CD000A846B1464FF0020A13E0207820380AEBEC
:102CE0008A018900334A00FB012714230A2249463E
:102CF00040460097FFF788FF08F10A000FFA80F8B6
:102D0000641C20780028E8D1BDE8F8872DE9F84751
:102D100005460E461446A846B1464FF0010A12E099
:102D20002078203800EB4000234901EB80070A237C
:102D30000622494640460097FFF766FF08F1060065
:102D40000FFA80F8641C20780028E9D1BDE8F887E4
:102D500010B5114800680F49884206D10F480E4946
:102D600008600C480E49086005E00A480A490860F6
:102D70000A480B4908604FF4805209480168064828
:102D8000006800F0BAFD10BD0C08014000100140C1
:102D9000000C0140282200202402002028320020BC
:102DA000280200202C0200202D020020DC54000804
:102DB000E0540008404100081850000810B545F2E2
:102DC000555000F05BFD042000F05BFD40F27120E7
:102DD00000F05AFD00F05BFD00F05EFD10BD08B58F
:102DE0000121082000F0E8FE14208DF803000320E4
:102DF0008DF802004FF48050ADF800006946A148FC
:102E000000F0EAF908BD08B54FF4E06000F0B2FE4A
:102E100027208DF8000001208DF8010000208DF89A
:102E2000020001208DF80300684600F068FE08BD2E
:102E300010B5FFF7E8FFFFF7D2FF00F02DF9FFF71D
:102E4000BEFDFFF7BBFF10BD00B585B0012111200D
:102E500000F0B2FE0121880400F096FE01218A48AC
:102E600000F08BFA4FF48060ADF8000018208DF868
:102E7000030003208DF802006946844800F0ACF995
:102E80004FF40060ADF8000048208DF8030069465B
:102E90007E4800F0A1F94FF4165001904FF4805095
:102EA000ADF808000020ADF80A004FF48060ADF8DE
:102EB0000C000020ADF810000C20ADF80E0001A9A8
:102EC000734800F01AFB012240F22551704800F0CF
:102ED000ACFB01216E4800F09CFB0020FEF7D0FA0D
:102EE0006C49C1F8040105B000BD70B504460D463B
:102EF00067480C30008820F0040065490C310880D8
:102F00000BE014F8011B624800F0F0FB00BF6048C2
:102F1000008800F080000028F9D02800A5F1010108
:102F20008DB2EED100BF5A48008800F04000002862
:102F3000F9D057480C30008840F0040054490C3157
:102F4000088070BD30B5002224E0524B93F8014157
:102F500093F801315B1C4F4D85F801312B461B5D09
:102F600000F8013B2B4693F80131B3F5807F03D184
:102F700000232C4684F80131464B93F802315B1E46
:102F8000444C84F80231234693F8023103B903E03C
:102F9000531C9AB28A42D8DB00BF30BD38B5054613
:102FA0000C463C4890F80201A04205DB2146284629
:102FB000FFF7C8FF204638BD364981F803416A460D
:102FC000D1F804010021FEF7F0FA9DF8000048B99D
:102FD0000020304981F8030121462846FFF7B2FF5F
:102FE0002046E8E70020E6E770B5002540F22551CD
:102FF000274800F0FFFBC0B340F22551244800F001
:1030000023FC234800F076FBC4B2224890F802016A
:10301000FF2819DC1F4890F8001190F80001401CAF
:103020001C4A82F800011046445490F80201401CEA
:10303000114681F80201084690F80001B0F5807F42
:1030400002D1002081F80001124890F802011149D4
:1030500091F80311884208DB0E4890F8030120B173
:103060000C49D1F80401FEF752FB40F227710848E1
:1030700000F0C0FB20B140F22771054800F0E4FBEE
:1030800070BD0000000C0140100014000010014051
:1030900000480040284200201FB50121022000F016
:1030A00073FD4FF40070ADF80A000020ADF8060083
:1030B00040F23F60ADF808002320ADF8040001A9FC
:1030C000144800F009FE01221146124800F0FCFDF0
:1030D0001D208DF8000001208DF8030002208DF8DE
:1030E000010000208DF80200684600F008FD012173
:1030F000084800F0D2FD1FBD10B50121054800F0C1
:10310000D7FD012805D10121024800F0C3FDFFF7DA
:10311000D9FC10BD0004004010B50446CC488442E0
:1031200008D10121042000F053FD0021042000F00B
:103130004FFD46E0C748844208D10121082000F035
:1031400047FD0021082000F043FD3AE0C2488442D8
:1031500008D10121102000F03BFD0021102000F0DB
:1031600037FD2EE0BD48844208D10121202000F027
:103170002FFD0021202000F02BFD22E0B8488442E2
:1031800008D10121402000F023FD0021402000F063
:103190001FFD16E0B348844208D10121802000F0D1
:1031A00017FD0021802000F013FD0AE0AE488442A4
:1031B00007D10121801500F00BFD0021A01500F0C2
:1031C00007FD10BD10B50121084600F001FD0021EA
:1031D000012000F0FDFC10BD2DE9F0410246002564
:1031E0000026002000230024002791F803C00CF0E3
:1031F0000F0591F803C00CF0100CBCF1000F03D0C8
:1032000091F802C04CEA050591F800C0BCF1000F2E
:1032100031D0146800202BE04FF0010C0CFA00F3C1
:10322000B1F800C00CEA03069E4220D183004FF0A3
:103230000F0C0CFA03F7BC4305FA03FC4CEA040438
:1032400091F803C0BCF1280F06D14FF0010C0CFA25
:1032500000FCC2F814C00AE091F803C0BCF1480FAA
:1032600005D14FF0010C0CFA00FCC2F810C0401C54
:103270000828D1D31460B1F800C0BCF1FF0F34DDD1
:10328000546800202EE000F1080C4FF0010808FA05
:103290000CF3B1F800C00CEA03069E4221D1830072
:1032A0004FF00F0C0CFA03F7BC4305FA03FC4CEA91
:1032B000040491F803C0BCF1280F05D100F1080CFB
:1032C00008FA0CF8C2F8148091F803C0BCF1480F5A
:1032D00007D100F1080C4FF0010808FA0CF8C2F809
:1032E0001080401C0828CED35460BDE8F0814FF612
:1032F000FF710180022181700421C1707047024674
:10330000002093680B400BB1012000E000207047C3
:103310000146886880B2704702460020D3680B409F
:103320000BB1012000E0002070470146C86880B260
:10333000704701617047416170470AB1016100E067
:1033400041617047C16070474FF480320A43826127
:103350008161826182698269704702460020434B25
:1033600018684FF68073184040EA021008433F4B3C
:10337000186070473E49C8617047F0B50A4600239F
:1033800000240021002500F00046B6F1004F02D1D4
:10339000364EF16901E0354E7168C0F3034583B2E2
:1033A00000F44016B6F5401F08D121F070612F4E91
:1033B000766826F070662D4F7E6012E000F480166D
:1033C000B6F5801F06D1032606FA05F4A14341F0A5
:1033D000706106E0460D360103FA06F6B14341F08E
:1033E000706122B1460D360103FA06F6314300F052
:1033F0000046B6F1004F02D11C4EF16101E01B4EB8
:103400007160F0BD30B500228B071C0F0F2303FA4B
:1034100004F2164B08338C1053F824309343134CAA
:1034200008348D1044F8253023468C1053F824308E
:103430008C07240F00FA04F423430C4C08348D103D
:1034400044F8253030BD0A49DC310860704700007F
:1034500000080140000C0140001001400014014030
:1034600000180140001C0140002001400000014004
:103470000000204210B50446FB48844209D10121D6
:10348000880300F0A5FB00214FF4804000F0A0FB72
:1034900032E0F648844209D10121480400F080FB63
:1034A00000214FF4003000F07BFB25E0F04884421F
:1034B00009D10121880400F073FB00214FF4802022
:1034C00000F06EFB18E0EB48844209D10121C804EA
:1034D00000F066FB00214FF4002000F061FB0BE0E0
:1034E000E548844208D10121080500F059FB00217C
:1034F0004FF4801000F054FB10BD2DE9F04786B06A
:1035000005460E460024A24600BFA1460027B0890A
:1035100000B100BF2F462C8A4CF6FF700440F088A3
:1035200004432C82AC894EF6F3100440B0883189F4
:103530000843718908430443AC81AC8A4FF6FF40CD
:103540000440B0890443AC8201A800F04DFBC6489A
:10355000874202D1DDF810A001E0DDF80CA0A889B7
:1035600000F4004040B10AEBCA0000EB0A103168D9
:103570004900B0FBF1F807E00AEBCA0000EB0A10C3
:1035800031688900B0FBF1F86420B8FBF0F0040169
:103590002009642101FB1089A88900F4004040B192
:1035A000322000EBC900B0FBF1F000F0070004434B
:1035B00008E0322000EB09106421B0FBF1F000F0CC
:1035C0000F0004432C8106B0BDE8F0874FF416517C
:1035D000016000218180C18001810C214181002195
:1035E0008181704710B502460020108A4FF2FF0318
:1035F00018400B884C8823438C882343CC88234372
:103600001843108210BD0021018041808180C1805B
:10361000704721B1828942F40052828104E082899C
:103620004DF6FF731A4082817047F0B503460024BF
:1036300000260025002040F66A17B94200D100BFDD
:103640001846C1F3421401F01F06012707FA06F5D8
:10365000012C01D10C3004E0022C01D1103000E02B
:1036600014301AB107682F43076002E00768AF43C0
:103670000760F0BD1AB1838A0B43838202E0838A1C
:103680008B4383827047028A4FF6F0731A4002829E
:10369000028A0A430282704782894FF2FF731A40FE
:1036A000828182890A438281704721B1828942F0F6
:1036B0000202828104E082894FF6FD731A40828102
:1036C0007047028A4FF6DF731A400282028A0A4369
:1036D0000282704721B1028A42F48042028204E0F1
:1036E000028A4BF6FF731A4002827047C1F3080248
:1036F0008280704701468888C0F30800704781893E
:1037000041F0010181817047028BD2B20283028BAA
:1037100042EA012202837047028B02F47F42028355
:10372000028B0A430283704721B1828A42F0200251
:10373000828204E0828A4FF6DF731A4082827047E9
:1037400021B1828A42F01002828204E0828A4FF61E
:10375000EF731A408282704721B1828A42F00802D8
:10376000828204E0828A4FF6F7731A4082827047A1
:1037700021B1828942F40042828103E08289C2F34E
:103780000E028281704721B1828A42F400628282F5
:1037900004E0828A4FF2FF731A4082827047828A65
:1037A0004FF6FB731A408282828A0A4382827047F4
:1037B00021B1828A42F00202828204E0828A4FF6BC
:1037C000FD731A408282704702460020B1F5007FE7
:1037D00000D100BF13880B400BB1012000E0002096
:1037E000704701F40072B2F5007F00D100BFCA43F8
:1037F0000280704770B50246002400230025002097
:1038000040F66A16B14200D100BFC1F3421501F083
:103810001F03012606FA03F3012D02D196893340D6
:1038200006E0022D02D1168A334001E0968A334029
:103830000C12012606FA04F41688344013B10CB1B8
:10384000012000E0002070BD10B50022002340F6EA
:103850006A14A14200D100BF0A1201249440A3B20D
:10386000DC43048010BD00000038014000440040EB
:1038700000480040004C0040005000400E490860E5
:1038800070470D49486070470B49886070474AF699
:10389000AA200949086070474CF6CC4006490860E8
:1038A000704701460020044AD2680A400AB101204C
:1038B00000E00020704700000030004010B5431CBD
:1038C00002E010F8011B71B18107FAD14FF001320B
:1038D00002C88C1A8C4314EAC211F9D0C01A0A0625
:1038E00003D0C01E10BDC01A10BD0A0401D0801E36
:1038F00010BD0902FCD0401E10BD032A40F23080EA
:1039000010F0030C00F0158011F8013BBCF1020F20
:10391000624498BF11F801CB00F8013B38BF11F8A1
:10392000013BA2F1040298BF00F801CB38BF00F8B8
:10393000013B11F0030300F05280083AC0F0088008
:1039400051F8043B083A51F804CBA0E80810F5E719
:10395000121D5CBF51F8043B40F8043BAFF30080FC
:10396000D20724BF11F8013B11F801CB48BF11F871
:10397000012B24BF00F8013B00F801CB48BF00F841
:10398000012B704702F0FF0343EA032242EA02429E
:1039900000F002B84FF000020429C0F0128010F0CD
:1039A000030C00F05080CCF1040CBCF1020F18BFE6
:1039B00000F8012BA8BF20F8022BA1EB0C0100F0AE
:1039C00042B85FEAC17C24BF00F8012B00F8012B4C
:1039D00048BF00F8012B704770477047704710B51B
:1039E000203AC0F00B80B1E81850203AA0E81850F7
:1039F000B1E81850A0E81850BFF4F5AF5FEA027CB8
:103A000024BFB1E81850A0E8185044BF18C918C026
:103A1000BDE810405FEA827C24BF51F8043B40F8C7
:103A2000043B08BF7047D20728BF31F8023B48BFAC
:103A300011F8012B28BF20F8023B48BF00F8012BEA
:103A400070474FF0000200B5134694469646203961
:103A500022BFA0E80C50A0E80C50B1F12001BFF447
:103A6000F7AF090728BFA0E80C5048BF0CC05DF8AD
:103A700004EB890028BF40F8042B08BF704748BFFB
:103A800020F8022B11F0804F18BF00F8012B70476F
:103A9000754600F029F8AE4605006946534620F009
:103AA0000700854618B020B5FCF710FDBDE82040A2
:103AB0004FF000064FF000074FF000084FF0000BEA
:103AC00021F00701AC46ACE8C009ACE8C009ACE89D
:103AD000C009ACE8C0098D4670470446AFF30080CA
:103AE0002046FCF79CFB0000004870473043002054
:103AF00001491820ABBEFEE7260002007047F0B572
:103B00000F23C27801784FF0E024012742B3D4F8A4
:103B10000C2D467802F4E062C2F5E062120AC2F1AE
:103B20000405D3408278AE401A40324315018A071B
:103B3000D20E954021F003010B19D3F80064FF2148
:103B400091408E430D402E43C3F800640078410934
:103B500000F01F0004EB81018740C1F80071F0BD47
:103B600001F01F008740480904EB8000C0F8807115
:103B7000F0BD000002490843024908607047000098
:103B80000000FA050CED00E0044A0029D16901D0DB
:103B9000014300E08143D161704700000010024002
:103BA000044A0029116901D0014300E081431161F9
:103BB0007047000000100240044A0029916901D0BA
:103BC000014300E081439161704700000010024012
:103BD000044A0029D16801D0014300E08143D1604B
:103BE000704700000010024030B5204A5168204B59
:103BF00011F00C0103D0042901D0082901D0036081
:103C000011E05168022401F4701104EB91415468F1
:103C1000184D14F4803F02D05468A40301D56943C1
:103C200000E0594301605168134B01F0F0010909AC
:103C30005C5C0168E1404160546804F4E064240A7B
:103C40001C5D21FA04F48460546804F46054E40AAE
:103C50001B5DD940C1605268074B02F44042920B91
:103C60001B1F9A5CB1FBF2F1016130BD00100240F4
:103C700000127A0000093D00E85400084FF0E021EE
:103C80000428086902D140F0040001E020F004009B
:103C900008617047C943018270470029018802D03A
:103CA00041F0010102E040F2FE3211400180704714
:103CB0000246138A002092890B4202EA010202D0D6
:103CC000002A00D001207047002A828901D00A43CF
:103CD00000E08A438281704710B5028802F08F02AB
:103CE0000280CA884B8804881A43224302808A884B
:103CF000064C012382850A88A0420285838202D075
:103D0000034A904201D1097A018610BD002C01407E
:103D10000034014000000100020001000300010026
:103D20000200010004000100020001000300010084
:103D30000200010005000100020001000300010073
:103D40000200010004000100020001000300010064
:103D50000200010006000100020001000300010052
:103D60000200010004000100020001000300010044
:103D70000200010005000100020001000300010033
:103D80000200010004000100020001000300010024
:103D90000200010007000100020001000300010011
:103DA0000200010004000100020001000300010004
:103DB00002000100050001000200010003000100F3
:103DC00002000100040001000200010003000100E4
:103DD00002000100060001000200010003000100D2
:103DE00002000100040001000200010003000100C4
:103DF00002000100050001000200010003000100B3
:103E000002000100040001000200010003000100A3
:103E10000200010000002110422063308440A550C0
:103E2000C660E770088129914AA16BB18CC1ADD100
:103E3000CEE1EFF13112100273325222B5529442A8
:103E4000F772D662399318837BB35AA3BDD39CC350
:103E5000FFF3DEE36224433420040114E664C774F4
:103E6000A44485546AA54BB528850995EEE5CFF5A0
:103E7000ACC58DD55336722611163006D776F66648
:103E80009556B4465BB77AA719973887DFF7FEE7F0
:103E90009DD7BCC7C448E5588668A7784008611814
:103EA00002282338CCC9EDD98EE9AFF94889699940
:103EB0000AA92BB9F55AD44AB77A966A711A500AE8
:103EC000333A122AFDDBDCCBBFFB9EEB799B588B90
:103ED0003BBB1AABA66C877CE44CC55C222C033C34
:103EE000600C411CAEED8FFDECCDCDDD2AAD0BBDE0
:103EF000688D499D977EB66ED55EF44E133E322E88
:103F0000511E700E9FFFBEEFDDDFFCCF1BBF3AAF2F
:103F1000599F788F8891A981CAB1EBA10CD12DC18D
:103F20004EF16FE18010A100C230E3200450254023
:103F300046706760B9839893FBA3DAB33DC31CD383
:103F40007FE35EF3B1029012F322D2323542145273
:103F500077625672EAB5CBA5A89589856EF54FE5CF
:103F60002CD50DC5E234C324A014810466744764C3
:103F700024540544DBA7FAB79987B8975FE77EF723
:103F80001DC73CD7D326F2369106B0165766767613
:103F9000154634564CD96DC90EF92FE9C899E989EF
:103FA0008AB9ABA94458654806782768C018E10863
:103FB0008238A3287DCB5CDB3FEB1EFBF98BD89BC3
:103FC000BBAB9ABB754A545A376A167AF10AD01AB3
:103FD000B32A923A2EFD0FED6CDD4DCDAABD8BAD0F
:103FE000E89DC98D267C076C645C454CA23C832C03
:103FF000E01CC10C1FEF3EFF5DCF7CDF9BAFBABF63
:10400000D98FF89F176E367E554E745E932EB23E52
:10401000D10EF01E0000000C0C0008498008290099
:10402000084E000AFFC03D3A000C29001A48C01A89
:10403000904019100028304029EF8048220008469F
:1040400000083C00080B800830C00BC04000000096
:10405000000000040C00020C00020800020800022C
:1040600050403FBF8002108002288002C9801F8913
:1040700000108900108500108600108600108F0047
:104080001F91801020E000C0000000000000000030
:1040900008003E088024FFC0242300282200282492
:1040A0004029DB8024FF8024808022808022FF80C2
:1040B0002280803CFF8020084021FF8020080020D3
:1040C00008002008000000000000000C180008187C
:1040D000000814000822007F230008C1C00882C025
:1040E0001F7F001B010018118028890048890048A3
:1040F0004900084A0008420008024009FFE00800A1
:10410000000000000000000618000C1000082080CD
:10411000083F801349001A86002A06002A19804A9F
:1041200062C00A84000A18000A21800A46000A08B0
:10413000600A318008460008180009E0000000000D
:10414000000000000000000000000000000000006F
:10415000000000000000000000000000000000005F
:104160000000000000000000000000000C000C0037
:104170000C000C000C000C000C000C000C000800E3
:10418000080000000C000C000C0000000000000003
:1041900000000000000012001200120012000000D7
:1041A000000000000000000000000000000000000F
:1041B00000000000000000000000000000001100EE
:1041C000110011001100FF801300320032002200A4
:1041D000FF80220022002600660000000000000090
:1041E0000000000008001E003F006B00690068002E
:1041F00038001C000F000B006900690069003F00D7
:104200001E0008000800000000000000000061001F
:1042100051005200D200D400540078000B800A8074
:104220001680168026802280010000000000000019
:104230000000000000001C003E00220022003600AA
:104240003C00180078004D80C780C70063807F80E5
:104250001C0000000000000000000000000018002A
:104260000800080008000000000000000000000036
:10427000000000000000000000000000000000003E
:10428000000000800180010002000600040004001C
:1042900004000400040004000400040006000200FE
:1042A000010001800000000000000000400020002C
:1042B000300010001800080008000800080008007E
:1042C000080018001000300020004000000000002E
:1042D0000000000000000C000C004C807F801E00DD
:1042E0001E007F804C800C000C00000000000000CD
:1042F00000000000000000000000000000000000BE
:1043000000000C000C000C000C00FF800C000C00E6
:104310000C000C0000000000000000000000000085
:10432000000000000000000000000000000000008D
:10433000000000000000000000000000000020005D
:10434000200020002000000000000000000000000D
:1043500000000000000000000000FF8000000000DE
:10436000000000000000000000000000000000004D
:10437000000000000000000000000000000000003D
:10438000000000000000000000000000000020000D
:1043900020000000000000000000000000800080FD
:1043A00001000100020002000400040008001000E7
:1043B000100020002000400040000000000000002D
:1043C0000000000000001E003F006100618061806D
:1043D00041804180418041806180618023003F00B5
:1043E0000C000000000000000000000000000400BD
:1043F0000C001C003C000C000C000C000C000C001D
:104400000C000C000C000C000C0000000000000070
:104410000000000000001E003F006180418001801C
:104420000300030006000C000800180030007F8025
:104430007F800000000000000000000000001E005F
:10444000330061804180010003000E000300018001
:104450000180418061003F001C000000000000005E
:104460000000000000000300030007000F000B0025
:104470001B00330063004300FFC0FFC003000300C4
:1044800003000000000000000000000000003F00EA
:104490003F002000200060007E006300018001805A
:1044A0000180C18043007F001C000000000000006C
:1044B000000000000000060004000C0018001000BE
:1044C0003F007380618060804080608061803F0039
:1044D0001E000000000000000000000000007F80BF
:1044E0007F800180010003000200060004000C0030
:1044F000080008001800180010000000000000006C
:104500000000000000001E003F00610041806100CB
:1045100033003E00730041804180418061807F0014
:104520001E000000000000000000000000001E004F
:104530007F006180C180C180C18063007F001E0058
:1045400006000C000C001800100000000000000025
:10455000000000000000000000000000000000005B
:104560000C000000000000000000000000000C0033
:104570000C0000000000000000000000000000002F
:1045800000000000000000000C000000000000001F
:104590000000000000000C000C00080008000000F3
:1045A0000000000000000080010006000C00180060
:1045B00030006000600030001800040002000100BC
:1045C000008000000000000000000000000000006B
:1045D000000000000000FF80000000000000FF80DD
:1045E000FF8000000000000000000000000000004C
:1045F000000000000000400020001000080006003D
:104600000300018001800300040008001000600026
:1046100040000000000000000000000000001E003C
:104620003F00630061800300030006000C000C00E3
:104630000000000000000C000C0000000000000062
:104640000000000000000E00310040804F8092808A
:104650009280B280A280A680B6805B0040002100DC
:104660001E000000000000000000000000000C0020
:104670000C001C001E001E001200330033003F001F
:104680006100618061804180C0C0000000000000C6
:104690000000000000007E007F006180618061807A
:1046A00063007E00630061806180618061807F00C3
:1046B0007C000000000000000000000000000E0070
:1046C0003F00318061806180600060006000618037
:1046D0006180618031803F000E000000000000001A
:1046E0000000000000007C007E00630061806180AB
:1046F00061806180618061806180618063007E0093
:1047000078000000000000000000000000007F8032
:104710007F8060006000600060007F0060006000DB
:104720006000600060007F807F800000000000006B
:104730000000000000007F807F806000600060005B
:1047400060007F007F00600060006000600060002B
:1047500060000000000000000000000000001E00DB
:104760003F0021006180618060006000678061809F
:104770006180618031803F800C800000000000007B
:1047800000000000000061806180618061806180C4
:1047900061807F80618061806180618061806180F3
:1047A00061800000000000000000000000000C001C
:1047B0000C000C000C000C000C000C000C000C0099
:1047C0000C000C000C000C000C00000000000000AD
:1047D0000000000000000180018001800180018054
:1047E00001800180018061806180618063003F0001
:1047F0001C000000000000000000000000006180BC
:104800006300660066006C0078007C007C00660037
:1048100066006300630061806180000000000000AA
:1048200000000000000060006000600060006000A8
:1048300060006000600060006000600060007F80D9
:104840007F80000000000000000000000000618088
:104850006380738073805280528052805E805E805D
:104860005C804C804C804C804C800000000000003C
:10487000000000000000618061807180718079809B
:1048800079806D806D8065806780638063806380E0
:1048900061800000000000000000000000001E0019
:1048A0003F00618061806180418041804180418022
:1048B0006180618063003F001C0000000000000078
:1048C0000000000000007E007F0061806180618048
:1048D000618063807F0060006000600060006000B5
:1048E00060000000000000000000000000001E004A
:1048F0003F006180618061804180418041804180D2
:104900006780678063003F001D0001000000000019
:104910000000000000007E007F00618061806180F7
:1049200061807F007E00660062006300630061803A
:1049300061800000000000000000000000001E0078
:104940003F0061006180600030001E0007000380AE
:104950006180618061803F001E0000000000000057
:104960000000000000007F807F800C000C000C0025
:104970000C000C000C000C000C000C000C000C00D7
:104980000C0000000000000000000000000061803A
:10499000618061806180618061806180618061800F
:1049A0006180618061803F001E0000000000000007
:1049B000000000000000C0804180618061806100D3
:1049C00023003300320016001E001E001C000C00E5
:1049D0000C00000000000000000000000000CCC03F
:1049E000CC80CC80CC805D805D8057807780738068
:1049F0007300730033003300230000000000000048
:104A000000000000000061806100330032001E00E1
:104A10001C000C000C001E0032003300630061809B
:104A2000C180000000000000000000000000C08005
:104A300061806100330032001E001C000C000C007D
:104A40000C000C000C000C000C000000000000002A
:104A50000000000000007F807F800100030006004E
:104A600006000C00080018003000200060007F8065
:104A70007F8000000000000000000F800800080098
:104A800008000800080008000800080008000800E6
:104A9000080008000800080008000F800F800000D0
:104AA0000000000000006000200020001000100046
:104AB00018000800080004000400060002000200BC
:104AC000010001000180000000007C0004000400DF
:104AD00004000400040004000400040004000400B6
:104AE000040004000400040004007C007C000000BA
:104AF00000001C0016002300000000000000000061
:104B000000000000000000000000000000000000A5
:104B10000000000000000000000000000000000095
:104B20000000000000000000000000000000000085
:104B30000000000000000000000000000000FFC0B6
:104B4000000018000C00040002000000000000003B
:104B50000000000000000000000000000000000055
:104B60000000000000000000000000000000000045
:104B700000000000000000003F00330001000F00B3
:104B80003D00610063007F003980000000000000EC
:104B90000000000000006000600060006000600035
:104BA0007E007300618061806180618061007F00B0
:104BB0006C00000000000000000000000000000089
:104BC00000000000000000003F0073006180400012
:104BD0004000618061803F001E0000000000000076
:104BE0000000000000000180018001800180018040
:104BF0003F806380618041804180618063803F802D
:104C00001D80000000000000000000000000000007
:104C100000000000000000003F00230061807F8052
:104C20006000600061803F001E0000000000000086
:104C300000000000000007800F8008000800080046
:104C40007F000800080008000800080008000800AD
:104C5000080000000000000000000000000000004C
:104C600000000000000000003F80220063002300DD
:104C70003E007C0060003F00618041807F000000BA
:104C80000000000000006000600060006000600044
:104C90006F0071806180618061806180618061806E
:104CA00061800000000000000000000000000C0017
:104CB0000C000000000000000C000C000C000C00B8
:104CC0000C000C000C000C000C00000000000000A8
:104CD00000000000000002000200000000000000D0
:104CE00002000200020002000200020002000200B4
:104CF000020006003E00000000000000000060000E
:104D00006000600060006000630066006C007C0072
:104D10007600620063006100618000000000000016
:104D20000000000000000C000C000C000C000C0047
:104D30000C000C000C000C000C000C000C000C0013
:104D40000C00000000000000000000000000000057
:104D50000000000000000000FB80ECC0CCC0CCC014
:104D6000CCC0CCC0CCC0CCC0CCC000000000000087
:104D70000000000000000000000000000000000033
:104D80006F0071806180618061806180618061807D
:104D90006180000000000000000000000000000032
:104DA00000000000000000003E00730061804180B0
:104DB0004180618061803F001C0000000000000015
:104DC00000000000000000000000000000000000E3
:104DD0007E007300618061806180618061007F007E
:104DE0006E00600060006000000000000000000035
:104DF00000000000000000003F806380618041806F
:104E00004180618063803F801D800180018001803E
:104E10000000000000000000000000000000000092
:104E200037003C00380030003000300030003000E7
:104E30003000000000000000000000000000000042
:104E400000000000000000003F00210020003800AA
:104E50001F00018061803F001E0000000000000074
:104E600000000000000000000000180018001800FA
:104E70007F001800180018001800180018000F8094
:104E8000070000000000000000000000000000001B
:104E9000000000000000000061806180618061808E
:104EA00061806180638077801980000000000000CD
:104EB00000000000000000000000000000000000F2
:104EC0006180610023003300320016001E000C00D8
:104ED0000C000000000000000000000000000000C6
:104EE0000000000000000000CC80CC805C80558079
:104EF00077807300330033003300000000000000AF
:104F000000000000000000000000000000000000A1
:104F10006300330016001C000C001E00320023004A
:104F200061800000000000000000000000000000A0
:104F300000000000000000006180610023003300D9
:104F4000320016001E000C000C00080038000000A3
:104F50000000000000000000000000000000000051
:104F60007F00030006000C000800180030007F805E
:104F70007F800000000000000000038002000600A7
:104F8000060006000600060006000E000E000600E1
:104F9000060006000600060006000200038000006E
:104FA0000C000C000C000C000C000C000C000C00A1
:104FB0000C000C000C000C000C000C000C000C0091
:104FC0000C000C000C000C00000070001000100021
:104FD0001000100010001000100018001800100041
:104FE00010001000100010001000300060000000E1
:104FF00038803C80470002000000000000000000F4
:1050000000000000000000000000000000000000A0
:105010000000000000000000000000000000000090
:1050200000000000000020202020202000200000A0
:105030000028505000000000000000000000282858
:10504000FC2850FC50500000002078A8A0603028B8
:10505000A8F02000000048A8B050283454480000B0
:10506000000020505078A8A8906C000000404080BC
:1050700000000000000000000004081010101010D4
:1050800010080400004020101010101010204000E4
:1050900000000020A87070A8200000000000202060
:1050A00020F8202020000000000000000000000088
:1050B000004040800000000000F8000000000000F8
:1050C0000000000000000000004000000008101078
:1050D0001020204040408000000070888888888828
:1050E0008870000000002060202020202070000038
:1050F000000070888810204080F800000000708850
:105100000830080888700000000010305050907877
:10511000101800000000F88080F008088870000077
:105120000000709080F08888887000000000F8907F
:1051300010202020202000000000708888708888BF
:105140008870000000007088888878084870000027
:10515000000000002000000000200000000000000F
:105160000020000000202000000408102040201033
:105170000804000000000000F80000F80000000033
:105180000040201008040810204000000000708833
:1051900088102020002000000000708898A8A8B87F
:1051A00080780000000020203050507848CC00006B
:1051B0000000F0484870484848F000000000788837
:1051C00080808080887000000000F048484848488F
:1051D00048F000000000F8485070504048F80000C7
:1051E0000000F8485070504040E00000000038488F
:1051F00080809C88483000000000CC4848784848AF
:1052000048CC00000000F8202020202020F80000DA
:1052100000007C10101010101090E0000000EC480E
:105220005060505048EC00000000E04040404040DA
:1052300044FC00000000D8D8D8D8A8A8A8A800002E
:105240000000DC486868585848E800000000708892
:1052500088888888887000000000F04848704040C6
:1052600040E0000000007088888888E89870180086
:105270000000F0484870504848EC00000000788872
:105280008060100888F000000000F8A8202020208E
:10529000207000000000CC484848484848300000D2
:1052A0000000CC4848505030202000000000A8A842
:1052B000A8705050505000000000D850502020508E
:1052C00050D800000000D85050202020207000004E
:1052D0000000F8901020204048F8000000382020FE
:1052E00020202020202038000040404020201010A6
:1052F0001008000000701010101010101010700036
:10530000002050000000000000000000000000002D
:1053100000000000000000FC002000000000000071
:10532000000000000000000000304838483C000049
:105330000000C04040704848487000000000000075
:105340000038484040380000000018080838484835
:10535000483C000000000000003048784038000061
:1053600000001C2020782020207800000000000091
:10537000003C4830407844380000C0404070484805
:1053800048EC000000002000006020202070000099
:105390000000100000301010101010E00000C0409D
:1053A000405C507048EC00000000E02020202020ED
:1053B00020F800000000000000F0A8A8A8A8000045
:1053C0000000000000F0484848EC00000000000029
:1053D00000304848483000000000000000F0484815
:1053E000487040E000000000003848484838081C79
:1053F0000000000000D8604040E000000000000015
:105400000078403008780000000000202070202044
:10541000201800000000000000D84848483C000068
:105420000000000000EC48503020000000000000A8
:1054300000A8A870505000000000000000D85020C4
:1054400050D800000000000000EC4850302020C080
:1054500000000000007810202078000000181010D4
:105460001020101010101800101010101010101034
:10547000101010100060202020102020202060003C
:1054800040A4180000000000000000000000000020
:1054900000000C001E003F007F800C000C000C0080
:1054A0000C000C000C000C000C00000000000000C0
:1054B000000000000000000000000C000C000C00C8
:1054C0000C000C000C000C000C007F803F001E0044
:1054D0000C000000000000000000000000010203BA
:1054E0000004080C02040608000000000102030486
:1054F00001020304060708092000000031302300E0
:1055000031312300313223003130000032300000CD
:105510003330000034300000503000003000000014
:105520002D310000313100003231000033310000F4
:105530003431000042310000473100004C3100009E
:105540004D310000503100005231000031000000A8
:105550002D320000313200003232000033320000C0
:105560003432000042320000473200004C3200006A
:105570004D32000050320000523200003200000074
:105580002D3300003133000032330000333300008C
:105590003433000042330000473300004C33000036
:1055A0004D33000050330000330000002D34000064
:1055B0003134000032340000333400003434000051
:1055C000423400004D34000050340000340000002C
:1055D0002D35000031350000323500003335000034
:1055E00034350000423500004D35000050350000D4
:1055F000350000003136000032360000333600003E
:1056000034360000423600004D36000036000000FF
:1056100031370000323700003337000034370000E4
:105620003700000031380000323800003338000005
:1056300034380000380000003139000032390000F1
:105640003339000039000000410000003142000001
:105650003242000033420000344200003542000074
:105660004C4200004D420000504200004200000049
:1056700043000000440000004500000047460000D1
:105680004C47000047000000504800004800000060
:105690004B000000504C00004C0000004D0000008A
:1056A000505000005000000052000000CC5600088E
:1056B00000000020300200008C0100082058000883
:1056C0003002002060470000E80100081184A24A6F
:1056D0000400095C010203040607080913F85414C6
:1056E000084C551B087C041AA8041ACC041AF004B0
:1056F000130C561B0820041A34041A44041A081404
:105700001A24041A54041A84041AB0041AD4041A69
:10571000F4041A10201A24041A38041A0C101A2837
:10572000041A58041A88041AB4041AD8041AF8047B
:105730001A14201A28041A3C041A10101A2C041ADD
:105740005C041A8C041AB8041ADC041AFC041A1833
:10575000201A2C041A40041A14101A30041A600477
:105760001A90041ABC041AE00411191C1A1C042A09
:10577000300819101A20041A50041A80041AAC04B4
:105780001AD0041A4C1C1A50041A54041A58041A39
:105790005C041A48042A6CD819201A64041A940468
:1057A0001AC0041AE4041A04181A70041A74041AA9
:1057B00078042A84D419181A68041A98041A7C10D8
:1057C0001A8C041A90042A98C819141A6C042A9C7A
:1057D000A019101A80042A9CB819101A70041AA073
:1057E000041AC4041AE8041A08181A64041AA4044F
:1057F0001A18101A44041A74041AA4041AC8042AA1
:10580000EC68191C1A88041A94041AA0042AA8B077
:1058100019182A789C19041BFC54F829FCB10000C3
:04000005080001519D
:00000001FF
